{
  "contractName": "Cloris",
  "abi": [
    {
      "inputs": [
        {
          "internalType": "string",
          "name": "_name",
          "type": "string"
        },
        {
          "internalType": "string",
          "name": "_symbol",
          "type": "string"
        },
        {
          "internalType": "uint256",
          "name": "_mintCost",
          "type": "uint256"
        },
        {
          "internalType": "uint256",
          "name": "_maxSupply",
          "type": "uint256"
        },
        {
          "internalType": "uint256",
          "name": "_mintTime",
          "type": "uint256"
        },
        {
          "internalType": "string",
          "name": "_initBaseURI",
          "type": "string"
        },
        {
          "internalType": "string",
          "name": "_initBaseExtenstionURI",
          "type": "string"
        }
      ],
      "stateMutability": "nonpayable",
      "type": "constructor"
    },
    {
      "anonymous": false,
      "inputs": [
        {
          "indexed": true,
          "internalType": "address",
          "name": "owner",
          "type": "address"
        },
        {
          "indexed": true,
          "internalType": "address",
          "name": "approved",
          "type": "address"
        },
        {
          "indexed": true,
          "internalType": "uint256",
          "name": "tokenId",
          "type": "uint256"
        }
      ],
      "name": "Approval",
      "type": "event"
    },
    {
      "anonymous": false,
      "inputs": [
        {
          "indexed": true,
          "internalType": "address",
          "name": "owner",
          "type": "address"
        },
        {
          "indexed": true,
          "internalType": "address",
          "name": "operator",
          "type": "address"
        },
        {
          "indexed": false,
          "internalType": "bool",
          "name": "approved",
          "type": "bool"
        }
      ],
      "name": "ApprovalForAll",
      "type": "event"
    },
    {
      "anonymous": false,
      "inputs": [
        {
          "indexed": true,
          "internalType": "address",
          "name": "previousOwner",
          "type": "address"
        },
        {
          "indexed": true,
          "internalType": "address",
          "name": "newOwner",
          "type": "address"
        }
      ],
      "name": "OwnershipTransferred",
      "type": "event"
    },
    {
      "anonymous": false,
      "inputs": [
        {
          "indexed": true,
          "internalType": "address",
          "name": "from",
          "type": "address"
        },
        {
          "indexed": true,
          "internalType": "address",
          "name": "to",
          "type": "address"
        },
        {
          "indexed": true,
          "internalType": "uint256",
          "name": "tokenId",
          "type": "uint256"
        }
      ],
      "name": "Transfer",
      "type": "event"
    },
    {
      "inputs": [
        {
          "internalType": "address",
          "name": "to",
          "type": "address"
        },
        {
          "internalType": "uint256",
          "name": "tokenId",
          "type": "uint256"
        }
      ],
      "name": "approve",
      "outputs": [],
      "stateMutability": "nonpayable",
      "type": "function"
    },
    {
      "inputs": [
        {
          "internalType": "address",
          "name": "owner",
          "type": "address"
        }
      ],
      "name": "balanceOf",
      "outputs": [
        {
          "internalType": "uint256",
          "name": "",
          "type": "uint256"
        }
      ],
      "stateMutability": "view",
      "type": "function",
      "constant": true
    },
    {
      "inputs": [],
      "name": "deployedTime",
      "outputs": [
        {
          "internalType": "uint256",
          "name": "",
          "type": "uint256"
        }
      ],
      "stateMutability": "view",
      "type": "function",
      "constant": true
    },
    {
      "inputs": [
        {
          "internalType": "uint256",
          "name": "tokenId",
          "type": "uint256"
        }
      ],
      "name": "getApproved",
      "outputs": [
        {
          "internalType": "address",
          "name": "",
          "type": "address"
        }
      ],
      "stateMutability": "view",
      "type": "function",
      "constant": true
    },
    {
      "inputs": [
        {
          "internalType": "address",
          "name": "owner",
          "type": "address"
        },
        {
          "internalType": "address",
          "name": "operator",
          "type": "address"
        }
      ],
      "name": "isApprovedForAll",
      "outputs": [
        {
          "internalType": "bool",
          "name": "",
          "type": "bool"
        }
      ],
      "stateMutability": "view",
      "type": "function",
      "constant": true
    },
    {
      "inputs": [],
      "name": "isPaused",
      "outputs": [
        {
          "internalType": "bool",
          "name": "",
          "type": "bool"
        }
      ],
      "stateMutability": "view",
      "type": "function",
      "constant": true
    },
    {
      "inputs": [],
      "name": "maxMintAccount",
      "outputs": [
        {
          "internalType": "uint256",
          "name": "",
          "type": "uint256"
        }
      ],
      "stateMutability": "view",
      "type": "function",
      "constant": true
    },
    {
      "inputs": [],
      "name": "maxSupply",
      "outputs": [
        {
          "internalType": "uint256",
          "name": "",
          "type": "uint256"
        }
      ],
      "stateMutability": "view",
      "type": "function",
      "constant": true
    },
    {
      "inputs": [],
      "name": "mintCost",
      "outputs": [
        {
          "internalType": "uint256",
          "name": "",
          "type": "uint256"
        }
      ],
      "stateMutability": "view",
      "type": "function",
      "constant": true
    },
    {
      "inputs": [],
      "name": "mintTime",
      "outputs": [
        {
          "internalType": "uint256",
          "name": "",
          "type": "uint256"
        }
      ],
      "stateMutability": "view",
      "type": "function",
      "constant": true
    },
    {
      "inputs": [],
      "name": "name",
      "outputs": [
        {
          "internalType": "string",
          "name": "",
          "type": "string"
        }
      ],
      "stateMutability": "view",
      "type": "function",
      "constant": true
    },
    {
      "inputs": [],
      "name": "owner",
      "outputs": [
        {
          "internalType": "address",
          "name": "",
          "type": "address"
        }
      ],
      "stateMutability": "view",
      "type": "function",
      "constant": true
    },
    {
      "inputs": [
        {
          "internalType": "uint256",
          "name": "tokenId",
          "type": "uint256"
        }
      ],
      "name": "ownerOf",
      "outputs": [
        {
          "internalType": "address",
          "name": "",
          "type": "address"
        }
      ],
      "stateMutability": "view",
      "type": "function",
      "constant": true
    },
    {
      "inputs": [],
      "name": "renounceOwnership",
      "outputs": [],
      "stateMutability": "nonpayable",
      "type": "function"
    },
    {
      "inputs": [
        {
          "internalType": "address",
          "name": "from",
          "type": "address"
        },
        {
          "internalType": "address",
          "name": "to",
          "type": "address"
        },
        {
          "internalType": "uint256",
          "name": "tokenId",
          "type": "uint256"
        }
      ],
      "name": "safeTransferFrom",
      "outputs": [],
      "stateMutability": "nonpayable",
      "type": "function"
    },
    {
      "inputs": [
        {
          "internalType": "address",
          "name": "from",
          "type": "address"
        },
        {
          "internalType": "address",
          "name": "to",
          "type": "address"
        },
        {
          "internalType": "uint256",
          "name": "tokenId",
          "type": "uint256"
        },
        {
          "internalType": "bytes",
          "name": "_data",
          "type": "bytes"
        }
      ],
      "name": "safeTransferFrom",
      "outputs": [],
      "stateMutability": "nonpayable",
      "type": "function"
    },
    {
      "inputs": [
        {
          "internalType": "address",
          "name": "operator",
          "type": "address"
        },
        {
          "internalType": "bool",
          "name": "approved",
          "type": "bool"
        }
      ],
      "name": "setApprovalForAll",
      "outputs": [],
      "stateMutability": "nonpayable",
      "type": "function"
    },
    {
      "inputs": [
        {
          "internalType": "bytes4",
          "name": "interfaceId",
          "type": "bytes4"
        }
      ],
      "name": "supportsInterface",
      "outputs": [
        {
          "internalType": "bool",
          "name": "",
          "type": "bool"
        }
      ],
      "stateMutability": "view",
      "type": "function",
      "constant": true
    },
    {
      "inputs": [],
      "name": "symbol",
      "outputs": [
        {
          "internalType": "string",
          "name": "",
          "type": "string"
        }
      ],
      "stateMutability": "view",
      "type": "function",
      "constant": true
    },
    {
      "inputs": [
        {
          "internalType": "uint256",
          "name": "index",
          "type": "uint256"
        }
      ],
      "name": "tokenByIndex",
      "outputs": [
        {
          "internalType": "uint256",
          "name": "",
          "type": "uint256"
        }
      ],
      "stateMutability": "view",
      "type": "function",
      "constant": true
    },
    {
      "inputs": [],
      "name": "tokenMaxPurchase",
      "outputs": [
        {
          "internalType": "uint256",
          "name": "",
          "type": "uint256"
        }
      ],
      "stateMutability": "view",
      "type": "function",
      "constant": true
    },
    {
      "inputs": [
        {
          "internalType": "address",
          "name": "owner",
          "type": "address"
        },
        {
          "internalType": "uint256",
          "name": "index",
          "type": "uint256"
        }
      ],
      "name": "tokenOfOwnerByIndex",
      "outputs": [
        {
          "internalType": "uint256",
          "name": "",
          "type": "uint256"
        }
      ],
      "stateMutability": "view",
      "type": "function",
      "constant": true
    },
    {
      "inputs": [
        {
          "internalType": "uint256",
          "name": "",
          "type": "uint256"
        }
      ],
      "name": "tokens",
      "outputs": [
        {
          "internalType": "string",
          "name": "",
          "type": "string"
        }
      ],
      "stateMutability": "view",
      "type": "function",
      "constant": true
    },
    {
      "inputs": [],
      "name": "totalSupply",
      "outputs": [
        {
          "internalType": "uint256",
          "name": "",
          "type": "uint256"
        }
      ],
      "stateMutability": "view",
      "type": "function",
      "constant": true
    },
    {
      "inputs": [
        {
          "internalType": "address",
          "name": "from",
          "type": "address"
        },
        {
          "internalType": "address",
          "name": "to",
          "type": "address"
        },
        {
          "internalType": "uint256",
          "name": "tokenId",
          "type": "uint256"
        }
      ],
      "name": "transferFrom",
      "outputs": [],
      "stateMutability": "nonpayable",
      "type": "function"
    },
    {
      "inputs": [
        {
          "internalType": "address",
          "name": "newOwner",
          "type": "address"
        }
      ],
      "name": "transferOwnership",
      "outputs": [],
      "stateMutability": "nonpayable",
      "type": "function"
    },
    {
      "inputs": [
        {
          "internalType": "uint256",
          "name": "tokensToMint",
          "type": "uint256"
        }
      ],
      "name": "mintContract",
      "outputs": [],
      "stateMutability": "payable",
      "type": "function",
      "payable": true
    },
    {
      "inputs": [
        {
          "internalType": "address",
          "name": "_owner",
          "type": "address"
        }
      ],
      "name": "walletOfOwner",
      "outputs": [
        {
          "internalType": "uint256[]",
          "name": "",
          "type": "uint256[]"
        }
      ],
      "stateMutability": "view",
      "type": "function",
      "constant": true
    },
    {
      "inputs": [],
      "name": "getSecondsUntilMinting",
      "outputs": [
        {
          "internalType": "uint256",
          "name": "",
          "type": "uint256"
        }
      ],
      "stateMutability": "view",
      "type": "function",
      "constant": true
    },
    {
      "inputs": [],
      "name": "blockCurrentTime",
      "outputs": [
        {
          "internalType": "uint256",
          "name": "",
          "type": "uint256"
        }
      ],
      "stateMutability": "view",
      "type": "function",
      "constant": true
    },
    {
      "inputs": [],
      "name": "withdraw",
      "outputs": [],
      "stateMutability": "payable",
      "type": "function",
      "payable": true
    },
    {
      "inputs": [
        {
          "internalType": "uint256",
          "name": "tokenId",
          "type": "uint256"
        }
      ],
      "name": "tokenURI",
      "outputs": [
        {
          "internalType": "string",
          "name": "",
          "type": "string"
        }
      ],
      "stateMutability": "view",
      "type": "function",
      "constant": true
    },
    {
      "inputs": [
        {
          "internalType": "string",
          "name": "_newBaseURI",
          "type": "string"
        }
      ],
      "name": "setBaseURI",
      "outputs": [],
      "stateMutability": "nonpayable",
      "type": "function"
    },
    {
      "inputs": [
        {
          "internalType": "string",
          "name": "_extensionURI",
          "type": "string"
        }
      ],
      "name": "setExtensionURI",
      "outputs": [],
      "stateMutability": "nonpayable",
      "type": "function"
    },
    {
      "inputs": [
        {
          "internalType": "uint256",
          "name": "_maxMintAccount",
          "type": "uint256"
        }
      ],
      "name": "setMaxMintAccount",
      "outputs": [],
      "stateMutability": "nonpayable",
      "type": "function"
    },
    {
      "inputs": [
        {
          "internalType": "bool",
          "name": "_isPaused",
          "type": "bool"
        }
      ],
      "name": "setIsPaused",
      "outputs": [],
      "stateMutability": "nonpayable",
      "type": "function"
    }
  ],
  "bytecode": "0x60806040526003600e556000601360006101000a81548160ff0219169083151502179055503480156200003157600080fd5b5060405162004e8a38038062004e8a833981810160405281019062000057919062000466565b8686816000908051906020019062000071929190620001de565b5080600190805190602001906200008a929190620001de565b505050620000ad620000a16200011060201b60201c565b6200011860201b60201c565b84600f81905550836010819055508260128190555081600b9080519060200190620000da929190620001de565b50601460118190555080600c9080519060200190620000fb929190620001de565b5042600d8190555050505050505050620005fa565b600033905090565b6000600a60009054906101000a900473ffffffffffffffffffffffffffffffffffffffff16905081600a60006101000a81548173ffffffffffffffffffffffffffffffffffffffff021916908373ffffffffffffffffffffffffffffffffffffffff1602179055508173ffffffffffffffffffffffffffffffffffffffff168173ffffffffffffffffffffffffffffffffffffffff167f8be0079c531659141344cd1fd0a4f28419497f9722a3daafe3b4186f6b6457e060405160405180910390a35050565b828054620001ec90620005c4565b90600052602060002090601f0160209004810192826200021057600085556200025c565b82601f106200022b57805160ff19168380011785556200025c565b828001600101855582156200025c579182015b828111156200025b5782518255916020019190600101906200023e565b5b5090506200026b91906200026f565b5090565b5b808211156200028a57600081600090555060010162000270565b5090565b6000604051905090565b600080fd5b600080fd5b600080fd5b600080fd5b6000601f19601f8301169050919050565b7f4e487b7100000000000000000000000000000000000000000000000000000000600052604160045260246000fd5b620002f782620002ac565b810181811067ffffffffffffffff82111715620003195762000318620002bd565b5b80604052505050565b60006200032e6200028e565b90506200033c8282620002ec565b919050565b600067ffffffffffffffff8211156200035f576200035e620002bd565b5b6200036a82620002ac565b9050602081019050919050565b60005b83811015620003975780820151818401526020810190506200037a565b83811115620003a7576000848401525b50505050565b6000620003c4620003be8462000341565b62000322565b905082815260208101848484011115620003e357620003e2620002a7565b5b620003f084828562000377565b509392505050565b600082601f83011262000410576200040f620002a2565b5b815162000422848260208601620003ad565b91505092915050565b6000819050919050565b62000440816200042b565b81146200044c57600080fd5b50565b600081519050620004608162000435565b92915050565b600080600080600080600060e0888a03121562000488576200048762000298565b5b600088015167ffffffffffffffff811115620004a957620004a86200029d565b5b620004b78a828b01620003f8565b975050602088015167ffffffffffffffff811115620004db57620004da6200029d565b5b620004e98a828b01620003f8565b9650506040620004fc8a828b016200044f565b95505060606200050f8a828b016200044f565b9450506080620005228a828b016200044f565b93505060a088015167ffffffffffffffff8111156200054657620005456200029d565b5b620005548a828b01620003f8565b92505060c088015167ffffffffffffffff8111156200057857620005776200029d565b5b620005868a828b01620003f8565b91505092959891949750929550565b7f4e487b7100000000000000000000000000000000000000000000000000000000600052602260045260246000fd5b60006002820490506001821680620005dd57607f821691505b60208210811415620005f457620005f362000595565b5b50919050565b614880806200060a6000396000f3fe60806040526004361061020f5760003560e01c8063686ac4a011610118578063b187bd26116100a0578063c87b56dd1161006f578063c87b56dd14610785578063d5abeb01146107c2578063e985e9c5146107ed578063f2fde38b1461082a578063fcdbf8d9146108535761020f565b8063b187bd26146106dd578063b88d4fde14610708578063bdb4b84814610731578063c3bb8c641461075c5761020f565b806386478122116100e757806386478122146106085780638da5cb5b1461063357806395d89b411461065e578063a22cb46514610689578063a75052cb146106b25761020f565b8063686ac4a01461056d57806370a0823114610598578063715018a6146105d557806385839902146105ec5761020f565b8063334efeba1161019b578063461ac0191161016a578063461ac019146104625780634f64b2be1461048d5780634f6ccce7146104ca57806355f804b3146105075780636352211e146105305761020f565b8063334efeba146103c75780633ccfd60b146103f257806342842e0e146103fc578063438b6300146104255761020f565b806318160ddd116101e257806318160ddd146102e25780631eb1a63f1461030d57806323b872dd14610338578063240976bf146103615780632f745c591461038a5761020f565b806301ffc9a71461021457806306fdde0314610251578063081812fc1461027c578063095ea7b3146102b9575b600080fd5b34801561022057600080fd5b5061023b60048036038101906102369190612d4d565b61087c565b6040516102489190612d95565b60405180910390f35b34801561025d57600080fd5b506102666108f6565b6040516102739190612e49565b60405180910390f35b34801561028857600080fd5b506102a3600480360381019061029e9190612ea1565b610988565b6040516102b09190612f0f565b60405180910390f35b3480156102c557600080fd5b506102e060048036038101906102db9190612f56565b610a0d565b005b3480156102ee57600080fd5b506102f7610b25565b6040516103049190612fa5565b60405180910390f35b34801561031957600080fd5b50610322610b32565b60405161032f9190612fa5565b60405180910390f35b34801561034457600080fd5b5061035f600480360381019061035a9190612fc0565b610b38565b005b34801561036d57600080fd5b506103886004803603810190610383919061303f565b610b98565b005b34801561039657600080fd5b506103b160048036038101906103ac9190612f56565b610c31565b6040516103be9190612fa5565b60405180910390f35b3480156103d357600080fd5b506103dc610cd6565b6040516103e99190612fa5565b60405180910390f35b6103fa610cde565b005b34801561040857600080fd5b50610423600480360381019061041e9190612fc0565b610dd3565b005b34801561043157600080fd5b5061044c6004803603810190610447919061306c565b610df3565b6040516104599190613157565b60405180910390f35b34801561046e57600080fd5b50610477610f11565b6040516104849190612fa5565b60405180910390f35b34801561049957600080fd5b506104b460048036038101906104af9190612ea1565b610f17565b6040516104c19190612e49565b60405180910390f35b3480156104d657600080fd5b506104f160048036038101906104ec9190612ea1565b610fb7565b6040516104fe9190612fa5565b60405180910390f35b34801561051357600080fd5b5061052e600480360381019061052991906132ae565b611028565b005b34801561053c57600080fd5b5061055760048036038101906105529190612ea1565b6110be565b6040516105649190612f0f565b60405180910390f35b34801561057957600080fd5b50610582611170565b60405161058f9190612fa5565b60405180910390f35b3480156105a457600080fd5b506105bf60048036038101906105ba919061306c565b611176565b6040516105cc9190612fa5565b60405180910390f35b3480156105e157600080fd5b506105ea61122e565b005b61060660048036038101906106019190612ea1565b6112b6565b005b34801561061457600080fd5b5061061d611597565b60405161062a9190612fa5565b60405180910390f35b34801561063f57600080fd5b5061064861159d565b6040516106559190612f0f565b60405180910390f35b34801561066a57600080fd5b506106736115c7565b6040516106809190612e49565b60405180910390f35b34801561069557600080fd5b506106b060048036038101906106ab91906132f7565b611659565b005b3480156106be57600080fd5b506106c761166f565b6040516106d49190612fa5565b60405180910390f35b3480156106e957600080fd5b506106f261169a565b6040516106ff9190612d95565b60405180910390f35b34801561071457600080fd5b5061072f600480360381019061072a91906133d8565b6116ad565b005b34801561073d57600080fd5b5061074661170f565b6040516107539190612fa5565b60405180910390f35b34801561076857600080fd5b50610783600480360381019061077e91906132ae565b611715565b005b34801561079157600080fd5b506107ac60048036038101906107a79190612ea1565b6117ab565b6040516107b99190612e49565b60405180910390f35b3480156107ce57600080fd5b506107d7611856565b6040516107e49190612fa5565b60405180910390f35b3480156107f957600080fd5b50610814600480360381019061080f919061345b565b61185c565b6040516108219190612d95565b60405180910390f35b34801561083657600080fd5b50610851600480360381019061084c919061306c565b6118f0565b005b34801561085f57600080fd5b5061087a60048036038101906108759190612ea1565b6119e8565b005b60007f780e9d63000000000000000000000000000000000000000000000000000000007bffffffffffffffffffffffffffffffffffffffffffffffffffffffff1916827bffffffffffffffffffffffffffffffffffffffffffffffffffffffff191614806108ef57506108ee82611a6e565b5b9050919050565b606060008054610905906134ca565b80601f0160208091040260200160405190810160405280929190818152602001828054610931906134ca565b801561097e5780601f106109535761010080835404028352916020019161097e565b820191906000526020600020905b81548152906001019060200180831161096157829003601f168201915b5050505050905090565b600061099382611b50565b6109d2576040517f08c379a00000000000000000000000000000000000000000000000000000000081526004016109c99061356e565b60405180910390fd5b6004600083815260200190815260200160002060009054906101000a900473ffffffffffffffffffffffffffffffffffffffff169050919050565b6000610a18826110be565b90508073ffffffffffffffffffffffffffffffffffffffff168373ffffffffffffffffffffffffffffffffffffffff161415610a89576040517f08c379a0000000000000000000000000000000000000000000000000000000008152600401610a8090613600565b60405180910390fd5b8073ffffffffffffffffffffffffffffffffffffffff16610aa8611bbc565b73ffffffffffffffffffffffffffffffffffffffff161480610ad75750610ad681610ad1611bbc565b61185c565b5b610b16576040517f08c379a0000000000000000000000000000000000000000000000000000000008152600401610b0d90613692565b60405180910390fd5b610b208383611bc4565b505050565b6000600880549050905090565b60115481565b610b49610b43611bbc565b82611c7d565b610b88576040517f08c379a0000000000000000000000000000000000000000000000000000000008152600401610b7f90613724565b60405180910390fd5b610b93838383611d5b565b505050565b610ba0611bbc565b73ffffffffffffffffffffffffffffffffffffffff16610bbe61159d565b73ffffffffffffffffffffffffffffffffffffffff1614610c14576040517f08c379a0000000000000000000000000000000000000000000000000000000008152600401610c0b90613790565b60405180910390fd5b80601360006101000a81548160ff02191690831515021790555050565b6000610c3c83611176565b8210610c7d576040517f08c379a0000000000000000000000000000000000000000000000000000000008152600401610c7490613822565b60405180910390fd5b600660008473ffffffffffffffffffffffffffffffffffffffff1673ffffffffffffffffffffffffffffffffffffffff168152602001908152602001600020600083815260200190815260200160002054905092915050565b600042905090565b610ce6611bbc565b73ffffffffffffffffffffffffffffffffffffffff16610d0461159d565b73ffffffffffffffffffffffffffffffffffffffff1614610d5a576040517f08c379a0000000000000000000000000000000000000000000000000000000008152600401610d5190613790565b60405180910390fd5b60003373ffffffffffffffffffffffffffffffffffffffff1647604051610d8090613873565b60006040518083038185875af1925050503d8060008114610dbd576040519150601f19603f3d011682016040523d82523d6000602084013e610dc2565b606091505b5050905080610dd057600080fd5b50565b610dee838383604051806020016040528060008152506116ad565b505050565b6060600073ffffffffffffffffffffffffffffffffffffffff168273ffffffffffffffffffffffffffffffffffffffff161415610e65576040517f08c379a0000000000000000000000000000000000000000000000000000000008152600401610e5c906138d4565b60405180910390fd5b6000610e7083611176565b905060008167ffffffffffffffff811115610e8e57610e8d613183565b5b604051908082528060200260200182016040528015610ebc5781602001602082028036833780820191505090505b50905060005b82811015610f0657610ed48582610c31565b828281518110610ee757610ee66138f4565b5b6020026020010181815250508080610efe90613952565b915050610ec2565b508092505050919050565b600d5481565b60146020528060005260406000206000915090508054610f36906134ca565b80601f0160208091040260200160405190810160405280929190818152602001828054610f62906134ca565b8015610faf5780601f10610f8457610100808354040283529160200191610faf565b820191906000526020600020905b815481529060010190602001808311610f9257829003601f168201915b505050505081565b6000610fc1610b25565b8210611002576040517f08c379a0000000000000000000000000000000000000000000000000000000008152600401610ff990613a0d565b60405180910390fd5b60088281548110611016576110156138f4565b5b90600052602060002001549050919050565b611030611bbc565b73ffffffffffffffffffffffffffffffffffffffff1661104e61159d565b73ffffffffffffffffffffffffffffffffffffffff16146110a4576040517f08c379a000000000000000000000000000000000000000000000000000000000815260040161109b90613790565b60405180910390fd5b80600b90805190602001906110ba929190612c3e565b5050565b6000806002600084815260200190815260200160002060009054906101000a900473ffffffffffffffffffffffffffffffffffffffff169050600073ffffffffffffffffffffffffffffffffffffffff168173ffffffffffffffffffffffffffffffffffffffff161415611167576040517f08c379a000000000000000000000000000000000000000000000000000000000815260040161115e90613a9f565b60405180910390fd5b80915050919050565b600e5481565b60008073ffffffffffffffffffffffffffffffffffffffff168273ffffffffffffffffffffffffffffffffffffffff1614156111e7576040517f08c379a00000000000000000000000000000000000000000000000000000000081526004016111de90613b31565b60405180910390fd5b600360008373ffffffffffffffffffffffffffffffffffffffff1673ffffffffffffffffffffffffffffffffffffffff168152602001908152602001600020549050919050565b611236611bbc565b73ffffffffffffffffffffffffffffffffffffffff1661125461159d565b73ffffffffffffffffffffffffffffffffffffffff16146112aa576040517f08c379a00000000000000000000000000000000000000000000000000000000081526004016112a190613790565b60405180910390fd5b6112b46000611fc2565b565b60006112c0610b25565b905060105482826112d19190613b51565b1115611312576040517f08c379a000000000000000000000000000000000000000000000000000000000815260040161130990613c19565b60405180910390fd5b6012544211611356576040517f08c379a000000000000000000000000000000000000000000000000000000000815260040161134d90613c85565b60405180910390fd5b60008211611399576040517f08c379a000000000000000000000000000000000000000000000000000000000815260040161139090613d17565b60405180910390fd5b600e546113a533611176565b11156113e6576040517f08c379a00000000000000000000000000000000000000000000000000000000081526004016113dd90613da9565b60405180910390fd5b600e5482111561142b576040517f08c379a000000000000000000000000000000000000000000000000000000000815260040161142290613e3b565b60405180910390fd5b601154821115611470576040517f08c379a000000000000000000000000000000000000000000000000000000000815260040161146790613ecd565b60405180910390fd5b601360009054906101000a900460ff16156114c0576040517f08c379a00000000000000000000000000000000000000000000000000000000081526004016114b790613f5f565b60405180910390fd5b3373ffffffffffffffffffffffffffffffffffffffff166114df61159d565b73ffffffffffffffffffffffffffffffffffffffff161461154b57600f54826115089190613f7f565b34101561154a576040517f08c379a00000000000000000000000000000000000000000000000000000000081526004016115419061404b565b60405180910390fd5b5b60005b82811015611592576000611560610b25565b905060105461156d610b25565b101561157e5761157d3382612088565b5b50808061158a90613952565b91505061154e565b505050565b60125481565b6000600a60009054906101000a900473ffffffffffffffffffffffffffffffffffffffff16905090565b6060600180546115d6906134ca565b80601f0160208091040260200160405190810160405280929190818152602001828054611602906134ca565b801561164f5780601f106116245761010080835404028352916020019161164f565b820191906000526020600020905b81548152906001019060200180831161163257829003601f168201915b5050505050905090565b61166b611664611bbc565b83836120a6565b5050565b6000804290506000816012541115611692578160125461168f919061406b565b90505b809250505090565b601360009054906101000a900460ff1681565b6116be6116b8611bbc565b83611c7d565b6116fd576040517f08c379a00000000000000000000000000000000000000000000000000000000081526004016116f490613724565b60405180910390fd5b61170984848484612213565b50505050565b600f5481565b61171d611bbc565b73ffffffffffffffffffffffffffffffffffffffff1661173b61159d565b73ffffffffffffffffffffffffffffffffffffffff1614611791576040517f08c379a000000000000000000000000000000000000000000000000000000000815260040161178890613790565b60405180910390fd5b80600c90805190602001906117a7929190612c3e565b5050565b60606117b682611b50565b6117f5576040517f08c379a00000000000000000000000000000000000000000000000000000000081526004016117ec90614111565b60405180910390fd5b6000600b8054611804906134ca565b905011611820576040518060200160405280600081525061184f565b600b61182b8361226f565b600c60405160200161183f9392919061424d565b6040516020818303038152906040525b9050919050565b60105481565b6000600560008473ffffffffffffffffffffffffffffffffffffffff1673ffffffffffffffffffffffffffffffffffffffff16815260200190815260200160002060008373ffffffffffffffffffffffffffffffffffffffff1673ffffffffffffffffffffffffffffffffffffffff16815260200190815260200160002060009054906101000a900460ff16905092915050565b6118f8611bbc565b73ffffffffffffffffffffffffffffffffffffffff1661191661159d565b73ffffffffffffffffffffffffffffffffffffffff161461196c576040517f08c379a000000000000000000000000000000000000000000000000000000000815260040161196390613790565b60405180910390fd5b600073ffffffffffffffffffffffffffffffffffffffff168173ffffffffffffffffffffffffffffffffffffffff1614156119dc576040517f08c379a00000000000000000000000000000000000000000000000000000000081526004016119d3906142fb565b60405180910390fd5b6119e581611fc2565b50565b6119f0611bbc565b73ffffffffffffffffffffffffffffffffffffffff16611a0e61159d565b73ffffffffffffffffffffffffffffffffffffffff1614611a64576040517f08c379a0000000000000000000000000000000000000000000000000000000008152600401611a5b90613790565b60405180910390fd5b80600e8190555050565b60007f80ac58cd000000000000000000000000000000000000000000000000000000007bffffffffffffffffffffffffffffffffffffffffffffffffffffffff1916827bffffffffffffffffffffffffffffffffffffffffffffffffffffffff19161480611b3957507f5b5e139f000000000000000000000000000000000000000000000000000000007bffffffffffffffffffffffffffffffffffffffffffffffffffffffff1916827bffffffffffffffffffffffffffffffffffffffffffffffffffffffff1916145b80611b495750611b48826123d0565b5b9050919050565b60008073ffffffffffffffffffffffffffffffffffffffff166002600084815260200190815260200160002060009054906101000a900473ffffffffffffffffffffffffffffffffffffffff1673ffffffffffffffffffffffffffffffffffffffff1614159050919050565b600033905090565b816004600083815260200190815260200160002060006101000a81548173ffffffffffffffffffffffffffffffffffffffff021916908373ffffffffffffffffffffffffffffffffffffffff160217905550808273ffffffffffffffffffffffffffffffffffffffff16611c37836110be565b73ffffffffffffffffffffffffffffffffffffffff167f8c5be1e5ebec7d5bd14f71427d1e84f3dd0314c0f7b2291e5b200ac8c7c3b92560405160405180910390a45050565b6000611c8882611b50565b611cc7576040517f08c379a0000000000000000000000000000000000000000000000000000000008152600401611cbe9061438d565b60405180910390fd5b6000611cd2836110be565b90508073ffffffffffffffffffffffffffffffffffffffff168473ffffffffffffffffffffffffffffffffffffffff161480611d4157508373ffffffffffffffffffffffffffffffffffffffff16611d2984610988565b73ffffffffffffffffffffffffffffffffffffffff16145b80611d525750611d51818561185c565b5b91505092915050565b8273ffffffffffffffffffffffffffffffffffffffff16611d7b826110be565b73ffffffffffffffffffffffffffffffffffffffff1614611dd1576040517f08c379a0000000000000000000000000000000000000000000000000000000008152600401611dc89061441f565b60405180910390fd5b600073ffffffffffffffffffffffffffffffffffffffff168273ffffffffffffffffffffffffffffffffffffffff161415611e41576040517f08c379a0000000000000000000000000000000000000000000000000000000008152600401611e38906144b1565b60405180910390fd5b611e4c83838361243a565b611e57600082611bc4565b6001600360008573ffffffffffffffffffffffffffffffffffffffff1673ffffffffffffffffffffffffffffffffffffffff1681526020019081526020016000206000828254611ea7919061406b565b925050819055506001600360008473ffffffffffffffffffffffffffffffffffffffff1673ffffffffffffffffffffffffffffffffffffffff1681526020019081526020016000206000828254611efe9190613b51565b92505081905550816002600083815260200190815260200160002060006101000a81548173ffffffffffffffffffffffffffffffffffffffff021916908373ffffffffffffffffffffffffffffffffffffffff160217905550808273ffffffffffffffffffffffffffffffffffffffff168473ffffffffffffffffffffffffffffffffffffffff167fddf252ad1be2c89b69c2b068fc378daa952ba7f163c4a11628f55a4df523b3ef60405160405180910390a4611fbd83838361254e565b505050565b6000600a60009054906101000a900473ffffffffffffffffffffffffffffffffffffffff16905081600a60006101000a81548173ffffffffffffffffffffffffffffffffffffffff021916908373ffffffffffffffffffffffffffffffffffffffff1602179055508173ffffffffffffffffffffffffffffffffffffffff168173ffffffffffffffffffffffffffffffffffffffff167f8be0079c531659141344cd1fd0a4f28419497f9722a3daafe3b4186f6b6457e060405160405180910390a35050565b6120a2828260405180602001604052806000815250612553565b5050565b8173ffffffffffffffffffffffffffffffffffffffff168373ffffffffffffffffffffffffffffffffffffffff161415612115576040517f08c379a000000000000000000000000000000000000000000000000000000000815260040161210c9061451d565b60405180910390fd5b80600560008573ffffffffffffffffffffffffffffffffffffffff1673ffffffffffffffffffffffffffffffffffffffff16815260200190815260200160002060008473ffffffffffffffffffffffffffffffffffffffff1673ffffffffffffffffffffffffffffffffffffffff16815260200190815260200160002060006101000a81548160ff0219169083151502179055508173ffffffffffffffffffffffffffffffffffffffff168373ffffffffffffffffffffffffffffffffffffffff167f17307eab39ab6107e8899845ad3d59bd9653f200f220920489ca2b5937696c31836040516122069190612d95565b60405180910390a3505050565b61221e848484611d5b565b61222a848484846125ae565b612269576040517f08c379a0000000000000000000000000000000000000000000000000000000008152600401612260906145af565b60405180910390fd5b50505050565b606060008214156122b7576040518060400160405280600181526020017f300000000000000000000000000000000000000000000000000000000000000081525090506123cb565b600082905060005b600082146122e95780806122d290613952565b915050600a826122e291906145fe565b91506122bf565b60008167ffffffffffffffff81111561230557612304613183565b5b6040519080825280601f01601f1916602001820160405280156123375781602001600182028036833780820191505090505b5090505b600085146123c457600182612350919061406b565b9150600a8561235f919061462f565b603061236b9190613b51565b60f81b818381518110612381576123806138f4565b5b60200101907effffffffffffffffffffffffffffffffffffffffffffffffffffffffffffff1916908160001a905350600a856123bd91906145fe565b945061233b565b8093505050505b919050565b60007f01ffc9a7000000000000000000000000000000000000000000000000000000007bffffffffffffffffffffffffffffffffffffffffffffffffffffffff1916827bffffffffffffffffffffffffffffffffffffffffffffffffffffffff1916149050919050565b612445838383612736565b600073ffffffffffffffffffffffffffffffffffffffff168373ffffffffffffffffffffffffffffffffffffffff161415612488576124838161273b565b6124c7565b8173ffffffffffffffffffffffffffffffffffffffff168373ffffffffffffffffffffffffffffffffffffffff16146124c6576124c58382612784565b5b5b600073ffffffffffffffffffffffffffffffffffffffff168273ffffffffffffffffffffffffffffffffffffffff16141561250a57612505816128f1565b612549565b8273ffffffffffffffffffffffffffffffffffffffff168273ffffffffffffffffffffffffffffffffffffffff16146125485761254782826129c2565b5b5b505050565b505050565b61255d8383612a41565b61256a60008484846125ae565b6125a9576040517f08c379a00000000000000000000000000000000000000000000000000000000081526004016125a0906145af565b60405180910390fd5b505050565b60006125cf8473ffffffffffffffffffffffffffffffffffffffff16612c1b565b15612729578373ffffffffffffffffffffffffffffffffffffffff1663150b7a026125f8611bbc565b8786866040518563ffffffff1660e01b815260040161261a94939291906146b5565b6020604051808303816000875af192505050801561265657506040513d601f19601f820116820180604052508101906126539190614716565b60015b6126d9573d8060008114612686576040519150601f19603f3d011682016040523d82523d6000602084013e61268b565b606091505b506000815114156126d1576040517f08c379a00000000000000000000000000000000000000000000000000000000081526004016126c8906145af565b60405180910390fd5b805181602001fd5b63150b7a0260e01b7bffffffffffffffffffffffffffffffffffffffffffffffffffffffff1916817bffffffffffffffffffffffffffffffffffffffffffffffffffffffff19161491505061272e565b600190505b949350505050565b505050565b6008805490506009600083815260200190815260200160002081905550600881908060018154018082558091505060019003906000526020600020016000909190919091505550565b6000600161279184611176565b61279b919061406b565b9050600060076000848152602001908152602001600020549050818114612880576000600660008673ffffffffffffffffffffffffffffffffffffffff1673ffffffffffffffffffffffffffffffffffffffff168152602001908152602001600020600084815260200190815260200160002054905080600660008773ffffffffffffffffffffffffffffffffffffffff1673ffffffffffffffffffffffffffffffffffffffff168152602001908152602001600020600084815260200190815260200160002081905550816007600083815260200190815260200160002081905550505b6007600084815260200190815260200160002060009055600660008573ffffffffffffffffffffffffffffffffffffffff1673ffffffffffffffffffffffffffffffffffffffff16815260200190815260200160002060008381526020019081526020016000206000905550505050565b60006001600880549050612905919061406b565b9050600060096000848152602001908152602001600020549050600060088381548110612935576129346138f4565b5b906000526020600020015490508060088381548110612957576129566138f4565b5b9060005260206000200181905550816009600083815260200190815260200160002081905550600960008581526020019081526020016000206000905560088054806129a6576129a5614743565b5b6001900381819060005260206000200160009055905550505050565b60006129cd83611176565b905081600660008573ffffffffffffffffffffffffffffffffffffffff1673ffffffffffffffffffffffffffffffffffffffff168152602001908152602001600020600083815260200190815260200160002081905550806007600084815260200190815260200160002081905550505050565b600073ffffffffffffffffffffffffffffffffffffffff168273ffffffffffffffffffffffffffffffffffffffff161415612ab1576040517f08c379a0000000000000000000000000000000000000000000000000000000008152600401612aa8906147be565b60405180910390fd5b612aba81611b50565b15612afa576040517f08c379a0000000000000000000000000000000000000000000000000000000008152600401612af19061482a565b60405180910390fd5b612b066000838361243a565b6001600360008473ffffffffffffffffffffffffffffffffffffffff1673ffffffffffffffffffffffffffffffffffffffff1681526020019081526020016000206000828254612b569190613b51565b92505081905550816002600083815260200190815260200160002060006101000a81548173ffffffffffffffffffffffffffffffffffffffff021916908373ffffffffffffffffffffffffffffffffffffffff160217905550808273ffffffffffffffffffffffffffffffffffffffff16600073ffffffffffffffffffffffffffffffffffffffff167fddf252ad1be2c89b69c2b068fc378daa952ba7f163c4a11628f55a4df523b3ef60405160405180910390a4612c176000838361254e565b5050565b6000808273ffffffffffffffffffffffffffffffffffffffff163b119050919050565b828054612c4a906134ca565b90600052602060002090601f016020900481019282612c6c5760008555612cb3565b82601f10612c8557805160ff1916838001178555612cb3565b82800160010185558215612cb3579182015b82811115612cb2578251825591602001919060010190612c97565b5b509050612cc09190612cc4565b5090565b5b80821115612cdd576000816000905550600101612cc5565b5090565b6000604051905090565b600080fd5b600080fd5b60007fffffffff0000000000000000000000000000000000000000000000000000000082169050919050565b612d2a81612cf5565b8114612d3557600080fd5b50565b600081359050612d4781612d21565b92915050565b600060208284031215612d6357612d62612ceb565b5b6000612d7184828501612d38565b91505092915050565b60008115159050919050565b612d8f81612d7a565b82525050565b6000602082019050612daa6000830184612d86565b92915050565b600081519050919050565b600082825260208201905092915050565b60005b83811015612dea578082015181840152602081019050612dcf565b83811115612df9576000848401525b50505050565b6000601f19601f8301169050919050565b6000612e1b82612db0565b612e258185612dbb565b9350612e35818560208601612dcc565b612e3e81612dff565b840191505092915050565b60006020820190508181036000830152612e638184612e10565b905092915050565b6000819050919050565b612e7e81612e6b565b8114612e8957600080fd5b50565b600081359050612e9b81612e75565b92915050565b600060208284031215612eb757612eb6612ceb565b5b6000612ec584828501612e8c565b91505092915050565b600073ffffffffffffffffffffffffffffffffffffffff82169050919050565b6000612ef982612ece565b9050919050565b612f0981612eee565b82525050565b6000602082019050612f246000830184612f00565b92915050565b612f3381612eee565b8114612f3e57600080fd5b50565b600081359050612f5081612f2a565b92915050565b60008060408385031215612f6d57612f6c612ceb565b5b6000612f7b85828601612f41565b9250506020612f8c85828601612e8c565b9150509250929050565b612f9f81612e6b565b82525050565b6000602082019050612fba6000830184612f96565b92915050565b600080600060608486031215612fd957612fd8612ceb565b5b6000612fe786828701612f41565b9350506020612ff886828701612f41565b925050604061300986828701612e8c565b9150509250925092565b61301c81612d7a565b811461302757600080fd5b50565b60008135905061303981613013565b92915050565b60006020828403121561305557613054612ceb565b5b60006130638482850161302a565b91505092915050565b60006020828403121561308257613081612ceb565b5b600061309084828501612f41565b91505092915050565b600081519050919050565b600082825260208201905092915050565b6000819050602082019050919050565b6130ce81612e6b565b82525050565b60006130e083836130c5565b60208301905092915050565b6000602082019050919050565b600061310482613099565b61310e81856130a4565b9350613119836130b5565b8060005b8381101561314a57815161313188826130d4565b975061313c836130ec565b92505060018101905061311d565b5085935050505092915050565b6000602082019050818103600083015261317181846130f9565b905092915050565b600080fd5b600080fd5b7f4e487b7100000000000000000000000000000000000000000000000000000000600052604160045260246000fd5b6131bb82612dff565b810181811067ffffffffffffffff821117156131da576131d9613183565b5b80604052505050565b60006131ed612ce1565b90506131f982826131b2565b919050565b600067ffffffffffffffff82111561321957613218613183565b5b61322282612dff565b9050602081019050919050565b82818337600083830152505050565b600061325161324c846131fe565b6131e3565b90508281526020810184848401111561326d5761326c61317e565b5b61327884828561322f565b509392505050565b600082601f83011261329557613294613179565b5b81356132a584826020860161323e565b91505092915050565b6000602082840312156132c4576132c3612ceb565b5b600082013567ffffffffffffffff8111156132e2576132e1612cf0565b5b6132ee84828501613280565b91505092915050565b6000806040838503121561330e5761330d612ceb565b5b600061331c85828601612f41565b925050602061332d8582860161302a565b9150509250929050565b600067ffffffffffffffff82111561335257613351613183565b5b61335b82612dff565b9050602081019050919050565b600061337b61337684613337565b6131e3565b9050828152602081018484840111156133975761339661317e565b5b6133a284828561322f565b509392505050565b600082601f8301126133bf576133be613179565b5b81356133cf848260208601613368565b91505092915050565b600080600080608085870312156133f2576133f1612ceb565b5b600061340087828801612f41565b945050602061341187828801612f41565b935050604061342287828801612e8c565b925050606085013567ffffffffffffffff81111561344357613442612cf0565b5b61344f878288016133aa565b91505092959194509250565b6000806040838503121561347257613471612ceb565b5b600061348085828601612f41565b925050602061349185828601612f41565b9150509250929050565b7f4e487b7100000000000000000000000000000000000000000000000000000000600052602260045260246000fd5b600060028204905060018216806134e257607f821691505b602082108114156134f6576134f561349b565b5b50919050565b7f4552433732313a20617070726f76656420717565727920666f72206e6f6e657860008201527f697374656e7420746f6b656e0000000000000000000000000000000000000000602082015250565b6000613558602c83612dbb565b9150613563826134fc565b604082019050919050565b600060208201905081810360008301526135878161354b565b9050919050565b7f4552433732313a20617070726f76616c20746f2063757272656e74206f776e6560008201527f7200000000000000000000000000000000000000000000000000000000000000602082015250565b60006135ea602183612dbb565b91506135f58261358e565b604082019050919050565b60006020820190508181036000830152613619816135dd565b9050919050565b7f4552433732313a20617070726f76652063616c6c6572206973206e6f74206f7760008201527f6e6572206e6f7220617070726f76656420666f7220616c6c0000000000000000602082015250565b600061367c603883612dbb565b915061368782613620565b604082019050919050565b600060208201905081810360008301526136ab8161366f565b9050919050565b7f4552433732313a207472616e736665722063616c6c6572206973206e6f74206f60008201527f776e6572206e6f7220617070726f766564000000000000000000000000000000602082015250565b600061370e603183612dbb565b9150613719826136b2565b604082019050919050565b6000602082019050818103600083015261373d81613701565b9050919050565b7f4f776e61626c653a2063616c6c6572206973206e6f7420746865206f776e6572600082015250565b600061377a602083612dbb565b915061378582613744565b602082019050919050565b600060208201905081810360008301526137a98161376d565b9050919050565b7f455243373231456e756d657261626c653a206f776e657220696e646578206f7560008201527f74206f6620626f756e6473000000000000000000000000000000000000000000602082015250565b600061380c602b83612dbb565b9150613817826137b0565b604082019050919050565b6000602082019050818103600083015261383b816137ff565b9050919050565b600081905092915050565b50565b600061385d600083613842565b91506138688261384d565b600082019050919050565b600061387e82613850565b9150819050919050565b7f54686520616464726573732063616e2774206265203000000000000000000000600082015250565b60006138be601683612dbb565b91506138c982613888565b602082019050919050565b600060208201905081810360008301526138ed816138b1565b9050919050565b7f4e487b7100000000000000000000000000000000000000000000000000000000600052603260045260246000fd5b7f4e487b7100000000000000000000000000000000000000000000000000000000600052601160045260246000fd5b600061395d82612e6b565b91507fffffffffffffffffffffffffffffffffffffffffffffffffffffffffffffffff8214156139905761398f613923565b5b600182019050919050565b7f455243373231456e756d657261626c653a20676c6f62616c20696e646578206f60008201527f7574206f6620626f756e64730000000000000000000000000000000000000000602082015250565b60006139f7602c83612dbb565b9150613a028261399b565b604082019050919050565b60006020820190508181036000830152613a26816139ea565b9050919050565b7f4552433732313a206f776e657220717565727920666f72206e6f6e657869737460008201527f656e7420746f6b656e0000000000000000000000000000000000000000000000602082015250565b6000613a89602983612dbb565b9150613a9482613a2d565b604082019050919050565b60006020820190508181036000830152613ab881613a7c565b9050919050565b7f4552433732313a2062616c616e636520717565727920666f7220746865207a6560008201527f726f206164647265737300000000000000000000000000000000000000000000602082015250565b6000613b1b602a83612dbb565b9150613b2682613abf565b604082019050919050565b60006020820190508181036000830152613b4a81613b0e565b9050919050565b6000613b5c82612e6b565b9150613b6783612e6b565b9250827fffffffffffffffffffffffffffffffffffffffffffffffffffffffffffffffff03821115613b9c57613b9b613923565b5b828201905092915050565b7f5468697320636f6e747261637420657863656564656420746865206d6178696d60008201527f756d206d696e7461626c6520746f6b656e20616d6f756e740000000000000000602082015250565b6000613c03603883612dbb565b9150613c0e82613ba7565b604082019050919050565b60006020820190508181036000830152613c3281613bf6565b9050919050565b7f4e6f74207468652074696d6520746f206d696e74000000000000000000000000600082015250565b6000613c6f601483612dbb565b9150613c7a82613c39565b602082019050919050565b60006020820190508181036000830152613c9e81613c62565b9050919050565b7f636f6e7472616374206e6f74206d696e7461626c6520666f722061203020616d60008201527f6f756e7400000000000000000000000000000000000000000000000000000000602082015250565b6000613d01602483612dbb565b9150613d0c82613ca5565b604082019050919050565b60006020820190508181036000830152613d3081613cf4565b9050919050565b7f457863656564656420746865206d6178696d756d206d696e7461626c6520616d60008201527f6f756e7420706572206163636f756e7400000000000000000000000000000000602082015250565b6000613d93603083612dbb565b9150613d9e82613d37565b604082019050919050565b60006020820190508181036000830152613dc281613d86565b9050919050565b7f457863656564656420746865206d6178696d756d206d696e7461626c6520616d60008201527f6f756e7400000000000000000000000000000000000000000000000000000000602082015250565b6000613e25602483612dbb565b9150613e3082613dc9565b604082019050919050565b60006020820190508181036000830152613e5481613e18565b9050919050565b7f43616e2774207075726368617365206d6f7265207468616e20323020746f6b6560008201527f6e73206174207468652074696d65000000000000000000000000000000000000602082015250565b6000613eb7602e83612dbb565b9150613ec282613e5b565b604082019050919050565b60006020820190508181036000830152613ee681613eaa565b9050919050565b7f546865206f776e6572206f662074686520636f6e74726163742070617573656460008201527f20746865206d696e74696e672070726f63657373000000000000000000000000602082015250565b6000613f49603483612dbb565b9150613f5482613eed565b604082019050919050565b60006020820190508181036000830152613f7881613f3c565b9050919050565b6000613f8a82612e6b565b9150613f9583612e6b565b9250817fffffffffffffffffffffffffffffffffffffffffffffffffffffffffffffffff0483118215151615613fce57613fcd613923565b5b828202905092915050565b7f5468652047617320616d6f756e7420646f6e277420636f76657220746865206d60008201527f696e7420636f7374000000000000000000000000000000000000000000000000602082015250565b6000614035602883612dbb565b915061404082613fd9565b604082019050919050565b6000602082019050818103600083015261406481614028565b9050919050565b600061407682612e6b565b915061408183612e6b565b92508282101561409457614093613923565b5b828203905092915050565b7f4552433732314d657461646174613a2055524920717565727920666f72206e6f60008201527f6e6578697374656e7420746f6b656e0000000000000000000000000000000000602082015250565b60006140fb602f83612dbb565b91506141068261409f565b604082019050919050565b6000602082019050818103600083015261412a816140ee565b9050919050565b600081905092915050565b60008190508160005260206000209050919050565b6000815461415e816134ca565b6141688186614131565b945060018216600081146141835760018114614194576141c7565b60ff198316865281860193506141c7565b61419d8561413c565b60005b838110156141bf578154818901526001820191506020810190506141a0565b838801955050505b50505092915050565b7f2f70696374757265000000000000000000000000000000000000000000000000600082015250565b6000614206600883614131565b9150614211826141d0565b600882019050919050565b600061422782612db0565b6142318185614131565b9350614241818560208601612dcc565b80840191505092915050565b60006142598286614151565b9150614264826141f9565b9150614270828561421c565b915061427c8284614151565b9150819050949350505050565b7f4f776e61626c653a206e6577206f776e657220697320746865207a65726f206160008201527f6464726573730000000000000000000000000000000000000000000000000000602082015250565b60006142e5602683612dbb565b91506142f082614289565b604082019050919050565b60006020820190508181036000830152614314816142d8565b9050919050565b7f4552433732313a206f70657261746f7220717565727920666f72206e6f6e657860008201527f697374656e7420746f6b656e0000000000000000000000000000000000000000602082015250565b6000614377602c83612dbb565b91506143828261431b565b604082019050919050565b600060208201905081810360008301526143a68161436a565b9050919050565b7f4552433732313a207472616e736665722066726f6d20696e636f72726563742060008201527f6f776e6572000000000000000000000000000000000000000000000000000000602082015250565b6000614409602583612dbb565b9150614414826143ad565b604082019050919050565b60006020820190508181036000830152614438816143fc565b9050919050565b7f4552433732313a207472616e7366657220746f20746865207a65726f2061646460008201527f7265737300000000000000000000000000000000000000000000000000000000602082015250565b600061449b602483612dbb565b91506144a68261443f565b604082019050919050565b600060208201905081810360008301526144ca8161448e565b9050919050565b7f4552433732313a20617070726f766520746f2063616c6c657200000000000000600082015250565b6000614507601983612dbb565b9150614512826144d1565b602082019050919050565b60006020820190508181036000830152614536816144fa565b9050919050565b7f4552433732313a207472616e7366657220746f206e6f6e20455243373231526560008201527f63656976657220696d706c656d656e7465720000000000000000000000000000602082015250565b6000614599603283612dbb565b91506145a48261453d565b604082019050919050565b600060208201905081810360008301526145c88161458c565b9050919050565b7f4e487b7100000000000000000000000000000000000000000000000000000000600052601260045260246000fd5b600061460982612e6b565b915061461483612e6b565b925082614624576146236145cf565b5b828204905092915050565b600061463a82612e6b565b915061464583612e6b565b925082614655576146546145cf565b5b828206905092915050565b600081519050919050565b600082825260208201905092915050565b600061468782614660565b614691818561466b565b93506146a1818560208601612dcc565b6146aa81612dff565b840191505092915050565b60006080820190506146ca6000830187612f00565b6146d76020830186612f00565b6146e46040830185612f96565b81810360608301526146f6818461467c565b905095945050505050565b60008151905061471081612d21565b92915050565b60006020828403121561472c5761472b612ceb565b5b600061473a84828501614701565b91505092915050565b7f4e487b7100000000000000000000000000000000000000000000000000000000600052603160045260246000fd5b7f4552433732313a206d696e7420746f20746865207a65726f2061646472657373600082015250565b60006147a8602083612dbb565b91506147b382614772565b602082019050919050565b600060208201905081810360008301526147d78161479b565b9050919050565b7f4552433732313a20746f6b656e20616c7265616479206d696e74656400000000600082015250565b6000614814601c83612dbb565b915061481f826147de565b602082019050919050565b6000602082019050818103600083015261484381614807565b905091905056fea26469706673582212202f04d15fda90adf145fb1631e49a0d72ee544857c7122f42537a958c54f2ba2864736f6c634300080b0033",
  "immutableReferences": {},
  "source": "// SPDX-License-Identifier: UNLICENSED\npragma solidity ^0.8.0;\n\n\nimport \"@openzeppelin/contracts/token/ERC721/extensions/ERC721Enumerable.sol\";\nimport \"@openzeppelin/contracts/access/Ownable.sol\";\nimport \"@openzeppelin/contracts/utils/Strings.sol\";\n\n\n\ncontract Cloris is ERC721Enumerable, Ownable {\n    using Strings for uint256;\n    \n    string baseURI;\n    string baseExtensionURI;\n    uint public deployedTime;\n    uint public maxMintAccount = 3;\n    uint public mintCost;\n    uint public maxSupply;\n    uint public tokenMaxPurchase;\n    uint public mintTime;\n    bool public isPaused = false;\n    mapping (uint => string) public tokens;\n\n    constructor (string memory _name, string memory _symbol, uint _mintCost, \n        uint _maxSupply, uint _mintTime, string memory _initBaseURI, \n        string memory _initBaseExtenstionURI ) \n        ERC721(_name, _symbol) {\n\n            mintCost = _mintCost;\n            maxSupply = _maxSupply;\n            mintTime = _mintTime;\n            baseURI = _initBaseURI;\n            tokenMaxPurchase = 20;\n            baseExtensionURI = _initBaseExtenstionURI;\n            deployedTime = block.timestamp;\n\n    }\n\n    function mintContract (uint tokensToMint) \n        public payable {\n        \n            uint supply = totalSupply();\n            require( supply + tokensToMint <= maxSupply, \"This contract exceeded the maximum mintable token amount\");\n            require(block.timestamp > mintTime, \"Not the time to mint\");\n            require(tokensToMint > 0, \"contract not mintable for a 0 amount\");\n            require(balanceOf(msg.sender) <= maxMintAccount, \"Exceeded the maximum mintable amount per account\");\n            require(tokensToMint <= maxMintAccount, \"Exceeded the maximum mintable amount\");\n            require(tokensToMint <= tokenMaxPurchase, \"Can't purchase more than 20 tokens at the time\");\n            require(!isPaused, \"The owner of the contract paused the minting process\");\n\n            if(owner() != msg.sender){\n                require(msg.value >= tokensToMint * mintCost, \"The Gas amount don't cover the mint cost\");\n            }\n\n            for(uint i = 0; i < tokensToMint; i++ ){\n                uint mintIndex = totalSupply();\n                if(totalSupply() < maxSupply){\n                    _safeMint(msg.sender, mintIndex );\n                    \n                }\n            }\n    }\n\n    function walletOfOwner(address _owner) \n        public view returns(uint256[] memory){\n\n            require(_owner != address(0), \"The address can't be 0\");\n            uint256 boundaryOwner = ERC721.balanceOf(_owner);\n            uint256[] memory ownerTokenId = new uint256[](boundaryOwner);\n            for (uint256 i =  0; i < boundaryOwner ; i++){\n                ownerTokenId[i] = tokenOfOwnerByIndex(_owner,i);\n            }\n            return ownerTokenId;\n\n    }\n\n    function getSecondsUntilMinting() \n        public view returns(uint256){\n            uint256 currentTime = block.timestamp;\n            uint256 leftTime = 0;\n            if( mintTime > currentTime ){\n                leftTime = mintTime - currentTime;\n            }\n            return leftTime;\n    }\n\n    function blockCurrentTime()\n        public view returns(uint256){\n            return block.timestamp;\n        }\n\n    function withdraw () public payable onlyOwner {\n        (bool success,) = payable(msg.sender).call{\n            value: address(this).balance\n        }(\"\");\n        require(success);\n    }\n\n    function _baseURI() \n        internal view override returns (string memory){\n            return baseURI;\n    }\n\n    function tokenURI(uint256 tokenId) \n        public view virtual override returns (string memory) {\n            require(_exists(tokenId), \"ERC721Metadata: URI query for nonexistent token\");\n            return bytes(baseURI).length > 0 ? string(abi.encodePacked(baseURI,\"/picture\", tokenId.toString(), baseExtensionURI)) : \"\";\n    }\n\n    function setBaseURI (string memory _newBaseURI) \n        public onlyOwner {\n            baseURI = _newBaseURI;\n    }\n\n    function setExtensionURI (string memory _extensionURI) \n        public onlyOwner {\n            baseExtensionURI = _extensionURI;\n    }\n\n    function setMaxMintAccount (uint _maxMintAccount) \n        public onlyOwner {\n            maxMintAccount = _maxMintAccount;\n    }\n\n    function setIsPaused (bool _isPaused) \n        public onlyOwner {\n            isPaused = _isPaused;\n    }\n\n\n\n\n\n}",
  "sourcePath": "/home/shaun/Documents/Blockchain/NFT/Cloris/cloris-project/src/contracts/Cloris.sol",
  "compiler": {
    "name": "solc",
    "version": "0.8.11+commit.d7f03943.Emscripten.clang"
  },
  "schemaVersion": "3.4.7",
  "updatedAt": "2022-05-21T09:18:52.139Z",
  "networkType": "ethereum",
  "devdoc": {
    "kind": "dev",
    "methods": {
      "approve(address,uint256)": {
        "details": "See {IERC721-approve}."
      },
      "balanceOf(address)": {
        "details": "See {IERC721-balanceOf}."
      },
      "getApproved(uint256)": {
        "details": "See {IERC721-getApproved}."
      },
      "isApprovedForAll(address,address)": {
        "details": "See {IERC721-isApprovedForAll}."
      },
      "name()": {
        "details": "See {IERC721Metadata-name}."
      },
      "owner()": {
        "details": "Returns the address of the current owner."
      },
      "ownerOf(uint256)": {
        "details": "See {IERC721-ownerOf}."
      },
      "renounceOwnership()": {
        "details": "Leaves the contract without owner. It will not be possible to call `onlyOwner` functions anymore. Can only be called by the current owner. NOTE: Renouncing ownership will leave the contract without an owner, thereby removing any functionality that is only available to the owner."
      },
      "safeTransferFrom(address,address,uint256)": {
        "details": "See {IERC721-safeTransferFrom}."
      },
      "safeTransferFrom(address,address,uint256,bytes)": {
        "details": "See {IERC721-safeTransferFrom}."
      },
      "setApprovalForAll(address,bool)": {
        "details": "See {IERC721-setApprovalForAll}."
      },
      "supportsInterface(bytes4)": {
        "details": "See {IERC165-supportsInterface}."
      },
      "symbol()": {
        "details": "See {IERC721Metadata-symbol}."
      },
      "tokenByIndex(uint256)": {
        "details": "See {IERC721Enumerable-tokenByIndex}."
      },
      "tokenOfOwnerByIndex(address,uint256)": {
        "details": "See {IERC721Enumerable-tokenOfOwnerByIndex}."
      },
      "tokenURI(uint256)": {
        "details": "See {IERC721Metadata-tokenURI}."
      },
      "totalSupply()": {
        "details": "See {IERC721Enumerable-totalSupply}."
      },
      "transferFrom(address,address,uint256)": {
        "details": "See {IERC721-transferFrom}."
      },
      "transferOwnership(address)": {
        "details": "Transfers ownership of the contract to a new account (`newOwner`). Can only be called by the current owner."
      }
    },
    "version": 1
  },
  "userdoc": {
    "kind": "user",
    "methods": {},
    "version": 1
  }
}